S0170000446174614163717569736974696F6E2E737265630A
S11300000C945A000C9477000C9477000C947700AD
S11300100C9477000C9477000C9477000C94770080
S11300200C9477000C9477000C9477000C94770070
S11300300C9477000C9477000C9477000C94770060
S11300400C9477000C9477000C9477000C94770050
S11300500C9477000C9477000C9477000C94770040
S11300600C9477000C9477000C9477000C94770030
S11300700C9477000C9477000C9477000C94770020
S11300800C9477000C9477000C9477000C94770010
S11300900C9477000C9477000C9477000C94770000
S11300A00C9477000C9477000C9477000C947700F0
S11300B00C94770011241FBECFEFD8E0DEBFCDBF74
S11300C011E0A0E0B1E0E6E0FCE002C005900D9292
S11300D0A43AB107D9F721E0A4EAB1E001C01D9226
S11300E0AA3AB207E1F70E94F9000C9401060C94B5
S11300F00000CF93C82F8A3019F48DE00E94790054
S11301008091C00085FFFCCFC093C60080E090E0E2
S1130110CF910895BC0180E090E00E94F80120E0B6
S113012030E040E85AE30E94860220E030E040EAF2
S113013050E40E94860220E030E040E05FE30E9449
S1130140550120E53DE04BEC51E40E94860223E892
S113015030EC46E451E40E94560120E030E04AE7E6
S113016054E40E9486020895BC0180E090E00E945D
S1130170F80120E030E040E85AE30E94860220E0E3
S113018030E44CE955E40E9486020E94C201CB018E
S113019008951092C50087E68093C400E2ECF0E075
S11301A0808186608083E1ECF0E0808188618083D7
S11301B00895ECE7F0E0808180648083EAE7F0E072
S11301C08081876880830895ECE7F0E09081907FD8
S11301D08F70892B8083EAE7F0E0808180648083DC
S11301E080917A0086FDFCCF80917800909179000F
S11301F008950E94D9000E94C90080E091E0909384
S1130200A7018093A6018EE091E00E94090386E491
S113021091E00E94090300E010E080E00E94E40005
S113022081E00E94E4000E948A004B015C0182E0AC
S11302300E94E4000E94B400F82EE92E1F930F934D
S1130240C6E9D1E0DF93CF930E94F3021F9287E3C4
S11302508F9385E991E09F938F930E94F302C501E8
S1130260B4010E94C9017F936F93DF93CF930E94DF
S1130270F302EF92FF928CE991E09F938F930E9497
S1130280F3028FEF9BE42DE1815090402040E1F791
S113029000C000000F5F1F4F8DB79EB740960FB68A
S11302A0F8949EBF0FBE8DBFB8CF5058BB27AA2766
S11302B00E946D010C944C020E943E0238F00E9490
S11302C0450220F039F49F3F19F426F40C943B02C4
S11302D00EF4E095E7FB0C943502E92F0E945D02D1
S11302E058F3BA17620773078407950720F079F467
S11302F0A6F50C947F020EF4E0950B2EBA2FA02DD8
S11303000B01B90190010C01CA01A0011124FF27BE
S1130310591B99F0593F50F4503E68F11A16F040B9
S1130320A22F232F342F4427585FF3CF46953795B8
S11303302795A795F0405395C9F77EF41F16BA0B7D
S1130340620B730B840BBAF09150A1F0FF0FBB1F2B
S1130350661F771F881FC2F70EC0BA0F621F731F74
S1130360841F48F4879577956795B795F7959E3FD1
S113037008F0B0CF9395880F08F09927EE0F979562
S1130380879508950E94C9016894B1110C94800264
S113039008950E94650288F09F5798F0B92F992715
S11303A0B751B0F0E1F0660F771F881F991F1AF05C
S11303B0BA95C9F714C0B13091F00E947F02B1E040
S11303C008950C947F02672F782F8827B85F39F03F
S11303D0B93FCCF3869577956795B395D9F73EF4F5
S11303E090958095709561957F4F8F4F9F4F08959D
S11303F0E89409C097FB3EF49095809570956195BB
S11304007F4F8F4F9F4F9923A9F0F92F96E9BB2770
S11304109395F695879577956795B795F111F8CFEC
S1130420FAF4BB0F11F460FF1BC06F5F7F4F8F4F57
S11304309F4F16C0882311F096E911C0772321F04D
S11304409EE8872F762F05C0662371F096E8862FE5
S113045070E060E02AF09A95660F771F881FDAF73C
S1130460880F9695879597F9089597F99F6780E87F
S113047070E060E008959FEF80EC089500240A94F2
S11304801616170618060906089500240A9412166B
S11304901306140605060895092E0394000C11F49E
S11304A0882352F0BB0F40F4BF2B11F460FF04C04B
S11304B06F5F7F4F8F4F9F4F089557FD9058440FA4
S11304C0551F59F05F3F71F04795880F97FB991FAF
S11304D061F09F3F79F0879508951216130614066C
S11304E0551FF2CF4695F1DF08C0161617061806F9
S11304F0991FF1CF86957105610508940895E894D4
S1130500BB2766277727CB0197F908950E949902A4
S11305100C944C020E943E0238F00E94450220F0E6
S1130520952311F00C9435020C943B0211240C9485
S113053080020E945D0270F3959FC1F3950F50E015
S1130540551F629FF001729FBB27F00DB11D639F81
S1130550AA27F00DB11DAA1F649F6627B00DA11D27
S1130560661F829F2227B00DA11D621F739FB00DCD
S1130570A11D621F839FA00D611D221F749F33273D
S1130580A00D611D231F849F600D211D822F762FD6
S11305906A2F11249F5750409AF0F1F088234AF0B3
S11305A0EE0FFF1FBB1F661F771F881F915050401F
S11305B0A9F79E3F510580F00C9435020C948002FB
S11305C05F3FE4F3983ED4F3869577956795B795A6
S11305D0F795E7959F5FC1F7FE2B880F911D9695C0
S11305E0879597F90895A0E0B0E0E9EFF2E00C9464
S11305F0DA05AE014B5F5F4FFA0161917191AF0172
S11306008091A6019091A7010E943903E2E00C9425
S1130610F6050F931F93CF93DF93E091A601F0911A
S1130620A701238121FF1BC08C01D0E0C0E0F801A9
S113063081918F016091A6017091A701DB01189649
S1130640ED91FC911997882331F00995892B79F361
S1130650DFEFCFEFECCF8AE00995892B19F08FEF0C
S11306609FEF02C08D2F9C2FDF91CF911F910F918F
S11306700895ABE0B0E0EFE3F3E00C94CA056C013D
S11306807B018A01FC0117821682838181FFCCC120
S1130690CE0101963C01F6019381F70193FD85910A
S11306A093FF81917F01882309F4BAC1853239F41B
S11306B093FD859193FF81917F01853229F4B601E1
S11306C090E00E943005E7CF912C212C312CFFE1E2
S11306D0F315D8F08B3279F038F4803279F0833224
S11306E0A1F4232D20611DC08D3261F0803369F4A3
S11306F0232D216016C0832D8260382EE32DE46003
S11307003E2E2AC0F32DF8601DC037FC2DC020ED0D
S1130710280F2A3040F08E32B9F436FC81C1232DE3
S11307202064322E19C036FE06C08AE0989E200D41
S11307301124922E11C0EAE02E9E200D1124222EA7
S1130740F32DF0623F2E08C08C3621F4832D80688F
S1130750382E02C0883641F4F70193FD859193FF4A
S113076081917F018111B3CF982F9F7D9554933050
S113077028F40C5F1F4F9FE399830DC0833631F03B
S1130780833771F0833509F059C021C0F8018081A5
S113079089830E5F1F4F88248394912C530113C0C7
S11307A02801F2E04F0E511CF801A080B18036FE02
S11307B003C0692D70E002C06FEF7FEFC5010E9496
S11307C025054C018201F32DFF773F2E16C0280129
S11307D022E0420E511CF801A080B18036FE03C015
S11307E0692D70E002C06FEF7FEFC5010E941A050A
S11307F04C01F32DF0683F2E820133FC1BC0822D87
S113080090E088169906B0F4B60180E290E00E9468
S113081030052A94F4CFF50137FC859137FE819198
S11308205F01B60190E00E94300521102A9421E076
S1130830821A91088114910471F7E8C0843611F08A
S1130840893641F5F80137FE07C0608171818281E4
S113085093810C5F1F4F08C060817181072E000CCB
S1130860880B990B0E5F1F4FF32DFF763F2E97FFDA
S113087009C090958095709561957F4F8F4F9F4FDC
S1130880F0683F2E2AE030E0A3010E946C05882E18
S1130890861845C0853731F4232D2F7EB22E2AE0E9
S11308A030E025C0932D997FB92E8F36C1F018F40E
S11308B0883579F0B5C0803719F0883721F0B0C099
S11308C0E92FE061BE2EB4FE0DC0FB2DF460BF2EF7
S11308D009C034FE0AC0292F2660B22E06C028E0C3
S11308E030E005C020E130E002C020E132E0F80150
S11308F0B7FE07C060817181828193810C5F1F4FB5
S113090006C06081718180E090E00E5F1F4FA301FB
S11309100E946C05882E8618FB2DFF773F2E36FE2D
S11309200DC0232D2E7FA22E891458F434FE0BC043
S113093032FC09C0832D8E7EA82E05C0B82CA32CB2
S113094003C0B82C01C0B92CA4FE0FC0FE01E80DF1
S1130950F11D8081803321F49A2D997EA92E09C03E
S1130960A2FE06C0B394B39404C08A2D867809F01D
S1130970B394A3FC11C0A0FE06C0B21488F4280CE2
S1130980922C9B180EC0B21460F4B60180E290E081
S11309900E943005B394F7CFB21418F42B1802C098
S11309A0982C212CA4FE10C0B60180E390E00E9494
S11309B03005A2FE17C0A1FC03C088E790E002C086
S11309C088E590E0B6010CC08A2D867859F0A1FE26
S11309D002C08BE201C080E2A7FC8DE2B60190E088
S11309E00E943005891438F4B60180E390E00E9437
S11309F030059A94F7CF8A94F301E80DF11D8081B4
S1130A00B60190E00E9430058110F5CF222009F450
S1130A1042CEB60180E290E00E9430052A94F6CFDF
S1130A20F6018681978102C08FEF9FEF2B96E2E15A
S1130A300C94E605FC010590615070400110D8F754
S1130A40809590958E0F9F1F0895FC016150704012
S1130A5001900110D8F7809590958E0F9F1F0895EF
S1130A600F931F93CF93DF93FB01238121FD03C0D9
S1130A708FEF9FEF2CC022FF16C04681578124813F
S1130A8035814217530744F4A081B1819D012F5F42
S1130A903F4F318320838C93268137812F5F3F4FD3
S1130AA03783268314C08B01EC01FB010084F1859C
S1130AB0E02D0995892BE1F6D80116968D919C912C
S1130AC01797019617969C938E931697CE01DF91F4
S1130AD0CF911F910F910895FA01AA27283051F15F
S1130AE0203181F1E8946F936E7F6E5F7F4F8F4F5B
S1130AF09F4FAF4FB1E03ED0B4E03CD0670F781FBA
S1130B00891F9A1FA11D680F791F8A1F911DA11D9E
S1130B106A0F711D811D911DA11D20D009F46894D7
S1130B203F912AE0269F11243019305D3193DEF67F
S1130B30CF010895462F4770405D4193B3E00FD035
S1130B40C9F7F6CF462F4F70405D4A3318F0495D20
S1130B5031FD4052419302D0A9F7EACFB4E0A69503
S1130B609795879577956795BA95C9F70097610525
S1130B70710508959B01AC010A2E0694579547957B
S1130B8037952795BA95C9F7620F731F841F951F70
S1130B90A01D08952F923F924F925F926F927F9281
S1130BA08F929F92AF92BF92CF92DF92EF92FF9279
S1130BB00F931F93CF93DF93CDB7DEB7CA1BDB0B25
S1130BC00FB6F894DEBF0FBECDBF09942A883988CA
S1130BD048885F846E847D848C849B84AA84B984D1
S1130BE0C884DF80EE80FD800C811B81AA81B981DD
S1130BF0CE0FD11D0FB6F894DEBF0FBECDBFED01F1
S1090C000895F894FFCFF3
S1130C0600000002000000007900000000005469A2
S1130C166D6520286D696E290954656D706572616C
S1130C267475726520284329095072657373757249
S1130C366520286D50534929094D6F69737475727F
S1130C466520285629002D2D2D2D2D2D2D2D2D2DAC
S1130C562D2D2D2D2D2D2D2D2D2D2D2D2D2D2D2DBA
S1130C662D2D2D2D2D2D2D2D2D2D2D2D2D2D2D2DAA
S1130C762D2D2D2D2D2D2D2D2D2D2D2D2D2D2D2D9A
S1130C862D2D2D2D2D2D2D2D2D2D2D2D2D2D2D2D8A
S1130C962D2D2D2D002D2575090909002575090908
S1070CA6090A000033
S9030000FC
